:100000000C942A000C9447000C9447000C94470071
:100010000C943C090C940F090C94850B0C942B0B3D
:100020000C94580B0C94FE0A0C94C90C0C949C0C68
:100030000C9447000C9447000C9447000C94470024
:100040000C9447000C9447000C9447000C94470014
:100050000C94470011241FBECFE5D8E0DEBFCDBF12
:1000600011E0A0E6B0E0E2EEF2E402C005900D92ED
:10007000AA3AB107D9F711E0AAEAB1E001C01D928E
:10008000AC3CB107E1F70E94E6200C946F210C9480
:100090000000EF92FF920F931F937B018C0120E0F1
:1000A00030E040E05FE40E94250488238CF0C80122
:1000B000B70120E030E040E05FE40E94C1010E940F
:1000C00085049B01AC01205030404040504806C0A0
:1000D000C801B7010E9485049B01AC01B901CA01A6
:1000E0001F910F91FF90EF900895A0E0B0E0EBE733
:1000F000F0E00C943821DC012B01FA019C91923044
:1001000008F439C1EB018881823008F433C194309E
:1001100069F4843009F02FC111969C91119789815F
:10012000981709F428C1A0E6B0E025C1843009F48D
:1001300021C18230A9F4923009F01DC19A01AD01AC
:1001400088E0EA010990AE01E90109929E0181501F
:10015000C1F7E201898111969C918923818308C1AD
:10016000923009F407C112962D903C901397EB0141
:100170008A819B811496AD90BD90CD90DC901797AD
:10018000EC80FD800E811F819101281B390BB90184
:1001900037FF04C066277727621B730B6032710537
:1001A0000CF061C0121613066CF537014801062EDB
:1001B00004C096948794779467940A94D2F721E0C8
:1001C00030E040E050E004C0220F331F441F551FB1
:1001D0006A95D2F721503040404050402E213F21B7
:1001E00040235123211531054105510521F021E01E
:1001F00030E040E050E079018A01E628F72808293C
:1002000019293CC0232BD1F1260E371E350146019A
:10021000062E04C096948794779467940A94D2F734
:1002200021E030E040E050E004C0220F331F441FC3
:10023000551F6A95D2F721503040404050402A2146
:100240003B214C215D21211531054105510521F04E
:1002500021E030E040E050E059016A01A628B728CB
:10026000C828D9280BC0821593052CF01C01AA249C
:10027000BB24650103C0EE24FF24870111969C91E5
:10028000D20111968C91981709F445C0992339F041
:10029000A80197012A193B094C095D0906C0A6016E
:1002A00095012E193F09400B510B57FD08C01182D3
:1002B0003382228224833583468357831DC081E0A5
:1002C00081833382228288279927DC01821B930B4A
:1002D000A40BB50B84839583A683B7830DC0220F2F
:1002E000331F441F551F24833583468357838281E0
:1002F000938101979383828324813581468157813D
:10030000DA01C9010197A109B1098F5F9F4FAF4F72
:10031000BF4328F30BC0918333822282EA0CFB1C7B
:100320000C1D1D1DE482F5820683178383E0808304
:10033000248135814681578157FF1AC0C901AA27F8
:1003400097FDA095BA2F81709070A070B0705695EF
:10035000479537952795822B932BA42BB52B848318
:100360009583A683B7838281938101969383828349
:10037000DF0101C0D201CD01CDB7DEB7E2E10C94BF
:100380005421A0E2B0E0E7ECF1E00C944421698351
:100390007A838B839C832D833E834F835887E9E048
:1003A000EE2EF12CEC0EFD1ECE010196B7010E943F
:1003B00076068E010F5E1F4FCE010596B8010E9492
:1003C00076068A8991E089278A8BC701B801AE0138
:1003D000475E5F4F0E9475000E94A105A096E6E06F
:1003E0000C946021A0E2B0E0E8EFF1E00C9444212D
:1003F00069837A838B839C832D833E834F835887C5
:10040000F9E0EF2EF12CEC0EFD1ECE010196B701A6
:100410000E9476068E010F5E1F4FCE010596B80131
:100420000E947606C701B801AE01475E5F4F0E9489
:1004300075000E94A105A096E6E00C946021A0E260
:10044000B0E0E5E2F2E00C94382169837A838B8393
:100450009C832D833E834F835887CE010196BE0136
:10046000675F7F4F0E947606CE010596BE016F5EE4
:100470007F4F0E9476069985923088F08989823074
:10048000C8F0943019F4823051F404C0843029F457
:10049000923081F480E690E0C6C0923049F420E0CA
:1004A0009A858A89981321E02A87CE010996BBC0D4
:1004B000823049F420E09A858A89981321E02A8BBA
:1004C000CE014196B0C02D843E844F8458886D88FB
:1004D0007E888F88988CEE24FF248701AA24BB2471
:1004E000650140E050E060E070E0E0E0F0E0C10174
:1004F00081709070892BE9F0E60CF71C081D191D1E
:100500009A01AB012A0D3B1D4C1D5D1D80E090E062
:10051000A0E0B0E0E614F7040805190520F481E036
:1005200090E0A0E0B0E0BA01A901480F591F6A1F8E
:100530007B1FAA0CBB1CCC1CDD1C97FE08C081E0F5
:1005400090E0A0E0B0E0A82AB92ACA2ADB2A3196B6
:10055000E032F10549F0660C771C881C991C569412
:10056000479437942794C3CFFA85EA892B893C892D
:100570008B859C85280F391F2E5F3F4F17C0CA01FE
:1005800081709070892B61F016950795F794E79428
:1005900080E090E0A0E0B0E8E82AF92A0A2B1B2BC3
:1005A00076956795579547952F5F3F4F77FDE7CF36
:1005B0000CC0440F551F661F771F17FD4160EE0CDE
:1005C000FF1C001F111F21503040403090E05907A0
:1005D00090E0690790E4790760F32B8F3C8FDB0193
:1005E000CA018F779070A070B07080349105A1051A
:1005F000B10561F447FD0AC0E114F10401051105DC
:1006000029F0405C5F4F6F4F7F4F40781A8EFE1786
:1006100011F081E08A8F4D8F5E8F6F8F78A383E01A
:10062000898FCE0149960E94A105A096E2E10C9423
:100630005421A8E1B0E0EFE1F3E00C94402169839C
:100640007A838B839C832D833E834F835887B9E0C5
:10065000EB2EF12CEC0EFD1ECE010196B7010E948F
:1006600076068E010F5E1F4FCE010596B8010E94DF
:1006700076062985223008F47EC03989323010F49C
:10068000B8017CC08A859A8989278A87243011F02D
:10069000223031F4231709F06EC060E670E06EC0BE
:1006A000343039F41D861E861F86188A1C861B86E8
:1006B00004C0323021F484E08987B7015FC02B8504
:1006C0003C858B899C89281B390B3C872B87ED84C3
:1006D000FE840F851889AD88BE88CF88D88CEA142F
:1006E000FB040C051D0540F4EE0CFF1C001F111F40
:1006F000215030403C872B8720E030E040E050E044
:1007000080E090E0A0E0B0E460E070E0EA14FB0478
:100710000C051D0540F0282B392B4A2B5B2BEA18C2
:10072000FB080C091D09B695A79597958795EE0CC2
:10073000FF1C001F111F6F5F7F4F6F31710531F775
:10074000DA01C9018F779070A070B0708034910584
:10075000A105B10561F427FD0AC0E114F10401050A
:10076000110529F0205C3F4F4F4F5F4F20782D87B8
:100770003E874F87588BBE01675F7F4FCB010E943A
:10078000A1056896EAE00C945C21A8E1B0E0EBECEE
:10079000F3E00C94442169837A838B839C832D83BB
:1007A0003E834F83588789E0E82EF12CEC0EFD1E26
:1007B000CE010196B7010E9476068E010F5E1F4F93
:1007C000CE010596B8010E9476068985823040F0F8
:1007D0008989823028F0C701B8010E94EE0601C065
:1007E00081E06896E6E00C946021A8E1B0E0EBEFD0
:1007F000F3E00C94442169837A838B839C832D835B
:100800003E834F83588789E0E82EF12CEC0EFD1EC5
:10081000CE010196B7010E9476068E010F5E1F4F32
:10082000CE010596B8010E9476068985823040F097
:100830008989823028F0C701B8010E94EE0601C004
:100840008FEF6896E6E00C946021A8E1B0E0EBE25F
:10085000F4E00C94442169837A838B839C832D83F9
:100860003E834F83588789E0E82EF12CEC0EFD1E65
:10087000CE010196B7010E9476068E010F5E1F4FD2
:10088000CE010596B8010E9476068985823040F037
:100890008989823028F0C701B8010E94EE0601C0A4
:1008A0008FEF6896E6E00C946021A8E1B0E0EBE5FC
:1008B000F4E00C94442169837A838B839C832D8399
:1008C0003E834F83588789E0E82EF12CEC0EFD1E05
:1008D000CE010196B7010E9476068E010F5E1F4F72
:1008E000CE010596B8010E9476068985823040F0D7
:1008F0008989823028F0C701B8010E94EE0601C044
:1009000081E06896E6E00C946021ACE0B0E0EBE8B2
:10091000F4E00C94482169837A838B839C83CE0115
:100920000196BE016B5F7F4F0E9476068D818230FB
:1009300061F1823050F1843021F48E81882351F1AD
:100940002EC02F81388537FD20C06E812F313105B3
:100950001CF06623F9F023C08EE190E0821B930B1C
:1009600029853A854B855C8504C056954795379512
:1009700027958A95D2F76623B1F05095409530952A
:1009800021953F4F4F4F5F4F0EC020E030E040E0D9
:1009900050E009C02FEF3FEF4FEF5FE704C020E0CA
:1009A00030E040E050E8B901CA012C96E2E00C9436
:1009B0006421A8E0B0E0EFEDF4E00C9440217B016D
:1009C0008C01611571058105910519F482E0898317
:1009D00060C083E089838EE1C82ED12CDC82CB827B
:1009E000ED82FE820F831887C801B7010E9452056D
:1009F000FC013197F7FF3BC0222733272E1B3F0B0B
:100A000057016801022E04C0D694C794B794A794E6
:100A10000A94D2F740E050E060E070E081E090E0BE
:100A2000A0E0B0E004C0880F991FAA1FBB1F2A9541
:100A3000D2F70197A109B1098E219F21A023B123EB
:100A40000097A105B10521F041E050E060E070E0C1
:100A50004A295B296C297D294D835E836F837887C2
:100A60008EE190E08E1B9F0B9C838B8312C030978E
:100A700081F00E2E04C0EE0CFF1C001F111F0A9403
:100A8000D2F7ED82FE820F831887CE1ADF0ADC824E
:100A9000CB821A82CE0101960E94A1052896EAE037
:100AA0000C945C21EF92FF920F931F937B018C01BA
:100AB00080E0E81680E0F80681E0080780E018078B
:100AC00088F48FEFE816F1040105110531F028F0E4
:100AD00088E090E0A0E0B0E017C080E090E0A0E007
:100AE000B0E012C080E0E81680E0F80680E0080779
:100AF00081E0180728F088E190E0A0E0B0E004C0B1
:100B000080E190E0A0E0B0E020E230E040E050E0A2
:100B1000281B390B4A0B5B0B04C016950795F794FD
:100B2000E7948A95D2F7F701E859FF4F8081281B97
:100B3000310941095109C9011F910F91FF90EF90AF
:100B40000895DF92EF92FF920F931F93FC01E480D0
:100B5000F58006811781D1808081823048F480E061
:100B600090E0A0E1B0E0E82AF92A0A2B1B2BA5C0EF
:100B7000843009F49FC0823021F4EE24FF248701E1
:100B800005C0E114F1040105110519F4E0E0F0E0FD
:100B900096C0628173819FEF623879070CF05BC069
:100BA00022E83FEF261B370B2A3131052CF020E0DD
:100BB00030E040E050E02AC0B801A701022E04C096
:100BC00076956795579547950A94D2F781E090E01E
:100BD000A0E0B0E004C0880F991FAA1FBB1F2A9590
:100BE000D2F70197A109B1098E219F21A023B1233A
:100BF0000097A105B10521F081E090E0A0E0B0E010
:100C00009A01AB01282B392B4A2B5B2BDA01C90146
:100C10008F779070A070B07080349105A105B105F8
:100C200039F427FF09C0205C3F4F4F4F5F4F04C08E
:100C3000215C3F4F4F4F5F4FE0E0F0E02030A0E0FD
:100C40003A07A0E04A07A0E45A0710F0E1E0F0E01C
:100C500079018A0127C06038710564F5FB01E1580C
:100C6000FF4FD801C7018F779070A070B0708034AB
:100C70009105A105B10539F4E7FE0DC080E490E0CF
:100C8000A0E0B0E004C08FE390E0A0E0B0E0E80EA8
:100C9000F91E0A1F1B1F17FF05C016950795F7942D
:100CA000E794319687E016950795F794E7948A952F
:100CB000D1F705C0EE24FF248701EFEFF0E06E2F9F
:100CC000679566276795902F9F77D794DD24D794F3
:100CD0008E2F8695492F462B582F5D29B701CA01C3
:100CE0001F910F91FF90EF90DF900895FC01DB01C1
:100CF000408151812281622F6F7770E0221F22276D
:100D0000221F9381892F880F822B282F30E0991F73
:100D10009927991F11969C93119721153105A9F5D3
:100D2000411551056105710511F482E037C082E873
:100D30009FEF13969C938E9312979A01AB0167E0F5
:100D4000220F331F441F551F6A95D1F783E08C9300
:100D50000DC0220F331F441F551F12968D919C9179
:100D60001397019713969C938E931297203080E0EF
:100D7000380780E0480780E4580758F314962D930D
:100D80003D934D935C93179708952F3F310579F468
:100D9000411551056105710519F484E08C9308959E
:100DA00064FF03C081E08C9312C01C9210C02F57C7
:100DB000304013963C932E93129783E08C9387E0F8
:100DC000440F551F661F771F8A95D1F770641496DC
:100DD0004D935D936D937C93179708951F93DC015A
:100DE000FB019C91923008F447C08081823008F466
:100DF00043C0943051F411961C91843099F581814F
:100E0000682F70E0611B71093FC0843021F092307F
:100E100031F48230B9F18181882389F12DC0119696
:100E20001C9111978230F1F081811817D9F4129634
:100E30002D913C911397828193818217930794F0AF
:100E400028173907BCF014968D919D910D90BC9197
:100E5000A02D2481358146815781281739074A07FB
:100E60005B0718F4112341F00AC082179307A40707
:100E7000B50740F4112319F061E070E005C06FEF91
:100E80007FEF02C060E070E0CB011F910895DF9317
:100E9000CF9300D000D000D0CDB7DEB769837A837E
:100EA0008B839C83A1E4B0E0E1E4F0E08081887F63
:100EB0008C931D8269817A818B819C8120E030E056
:100EC00040E85FE30E94C503882311F481E08D832D
:100ED00081E09D818927882309F48BC069817A810B
:100EE0008B819C8120E030E040E050E40E94C5030B
:100EF000882341F4A1E4B0E0E1E4F0E08081896F6F
:100F00008C9377C069817A818B819C8120E030E06D
:100F100040E450E40E94C503882341F4A1E4B0E01A
:100F2000E1E4F0E080818A6F8C9363C069817A810B
:100F30008B819C8120E030E040E850E40E94C503B2
:100F4000882341F4A1E4B0E0E1E4F0E080818B6F1C
:100F50008C934FC069817A818B819C8120E030E045
:100F600040EA50E40E94C503882341F4A1E4B0E0C4
:100F7000E1E4F0E080818C6F8C933BC069817A81E1
:100F80008B819C8120E030E040EC50E40E94C5035E
:100F9000882341F4A1E4B0E0E1E4F0E080818D6FCA
:100FA0008C9327C069817A818B819C8120E030E01D
:100FB00040EE50E40E94C503882341F4A1E4B0E070
:100FC000E1E4F0E080818E6F8C9313C069817A81B7
:100FD0008B819C8120E030E040E051E40E94C50319
:100FE000882339F4E1E4F0E08081E1E4F0E08FEF80
:100FF0008083A1E4B0E0E1E4F0E0808188608C933C
:1010000026960FB6F894DEBF0FBECDBFCF91DF910D
:101010000895DF93CF93CDB7DEB7A1E4B0E0E1E46C
:10102000F0E0808188618C93A1E4B0E0E1E4F0E03D
:1010300080818F7E8C93CF91DF910895DF93CF9342
:10104000CDB7DEB7A5E4B0E0E5E4F0E080818062F2
:101050008C93A5E4B0E0E5E4F0E0808180648C93BB
:10106000A5E4B0E0E5E4F0E0808188608C93CF9166
:10107000DF910895DF93CF93CDB7DEB7A5E4B0E05D
:10108000E5E4F0E08081887F8C93A5E4B0E0E5E4BE
:10109000F0E0808185608C93CF91DF910895DF939C
:1010A000CF93CDB7DEB7A5E4B0E0E5E4F0E0808112
:1010B000887F8C93CF91DF910895DF93CF930F9228
:1010C000CDB7DEB78983E4E4F0E0898180830F90B7
:1010D000CF91DF910895DF93CF930F92CDB7DEB715
:1010E0008983E3E4F0E0898180830F90CF91DF91E1
:1010F0000895DF93CF930F92CDB7DEB78983E3E4F2
:10110000F0E08981882F90E0982F882724E630E04E
:10111000B9010E940321CB01815080830F90CF91B0
:10112000DF910895DF93CF930F92CDB7DEB7898318
:10113000E3E4F0E08981882F90E0982F882722E36C
:1011400030E0B9010E940321CB01815080830F90D0
:10115000CF91DF910895DF93CF93CDB7DEB7A9E5A7
:10116000B0E0E9E5F0E0808180648C93CF91DF917D
:101170000895DF93CF93CDB7DEB7A9E5B0E0E9E5F9
:10118000F0E080818F7B8C93CF91DF910895DF9386
:10119000CF93CDB7DEB7A9E5B0E0E9E5F0E0808117
:1011A00080688C93CF91DF910895DF93CF93CDB773
:1011B000DEB7A9E5B0E0E9E5F0E080818F778C93B8
:1011C000CF91DF910895DF93CF9300D0CDB7DEB7F5
:1011D0009A83898389819A81009731F089819A81E4
:1011E0009093AB018093AA010F900F90CF91DF9164
:1011F0000895DF93CF9300D0CDB7DEB79A8389836C
:1012000089819A81009731F089819A819093AD010B
:101210008093AC010F900F90CF91DF9108951F92B2
:101220000F920FB60F9211242F933F934F935F931A
:101230006F937F938F939F93AF93BF93EF93FF939E
:10124000DF93CF93CDB7DEB7E091AA01F091AB0168
:101250000995CF91DF91FF91EF91BF91AF919F9150
:101260008F917F916F915F914F913F912F910F904F
:101270000FBE0F901F9018951F920F920FB60F92EE
:1012800011242F933F934F935F936F937F938F938B
:101290009F93AF93BF93EF93FF93DF93CF93CDB71C
:1012A000DEB7E091AC01F091AD010995CF91DF91EE
:1012B000FF91EF91BF91AF919F918F917F916F912E
:1012C0005F914F913F912F910F900FBE0F901F9004
:1012D0001895DF93CF93CDB7DEB7AFE4B0E0EFE47E
:1012E000F0E080818E7F8C93AFE4B0E0EFE4F0E03B
:1012F00080818D7F8C93AEE4B0E0EEE4F0E08081FD
:10130000877F8C93AEE4B0E0EEE4F0E080818F7EE6
:101310008C93CF91DF910895DF93CF93CDB7DEB754
:10132000AEE4B0E0EEE4F0E08081887F8C93AEE440
:10133000B0E0EEE4F0E0808182608C93CF91DF91A9
:101340000895DF93CF93CDB7DEB7AEE4B0E0EEE41F
:10135000F0E08081887F8C93CF91DF910895DF93B7
:10136000CF9300D0CDB7DEB79A838983ECE4F0E069
:10137000898180830F900F90CF91DF910895DF9343
:10138000CF9300D0CDB7DEB79A838983EAE4F0E04B
:1013900089819A81918380830F900F90CF91DF9103
:1013A0000895DF93CF93CDB7DEB727970FB6F894A4
:1013B000DEBF0FBECDBF8B834C835D836E837F8387
:1013C00080E492E4AFE0B0E02C813D814E815F810A
:1013D000BC01CD010E941621DA01C90101979A834F
:1013E0008983E6E4F0E089819A8191838083EAE44D
:1013F000F0E08B81282F30E089819A81AC01249F15
:10140000C001259F900D349F900D112424E630E0FB
:10141000B9010E94EF20CB019183808327960FB6FC
:10142000F894DEBF0FBECDBFCF91DF910895DF935B
:10143000CF930F92CDB7DEB789838981882341F49A
:10144000AEE4B0E0EEE4F0E0808180648C930AC00A
:101450008981813039F4AEE4B0E0EEE4F0E08081DF
:101460008F7B8C930F90CF91DF910895DF93CF9373
:10147000CDB7DEB7A9E5B0E0E9E5F0E080818460B2
:101480008C93CF91DF910895DF93CF93CDB7DEB7E3
:10149000A9E5B0E0E9E5F0E080818B7F8C93CF9106
:1014A000DF910895DF93CF93CDB7DEB7A9E5B0E024
:1014B000E9E5F0E0808180618C93CF91DF91089520
:1014C000DF93CF93CDB7DEB7A9E5B0E0E9E5F0E073
:1014D00080818F7E8C93CF91DF910895DF93CF939E
:1014E000CDB7DEB7A9E5B0E0E9E5F0E0808188603E
:1014F0008C93CF91DF910895DF93CF93CDB7DEB773
:10150000A9E5B0E0E9E5F0E08081877F8C93CF9199
:10151000DF910895DF93CF93CDB7DEB7A9E5B0E0B3
:10152000E9E5F0E0808180628C93CF91DF910895AE
:10153000DF93CF93CDB7DEB7A9E5B0E0E9E5F0E002
:1015400080818F7D8C93CF91DF910895DF93CF932E
:1015500000D0CDB7DEB79A83898389819A810097BD
:1015600031F089819A819093AF018093AE010F9001
:101570000F90CF91DF910895DF93CF9300D0CDB737
:10158000DEB79A83898389819A81009731F08981B6
:101590009A819093B1018093B0010F900F90CF91F9
:1015A000DF910895DF93CF9300D0CDB7DEB79A8354
:1015B000898389819A81009731F089819A819093FA
:1015C000B3018093B2010F900F90CF91DF910895F6
:1015D000DF93CF9300D0CDB7DEB79A83898389811B
:1015E0009A81009731F089819A819093B501809317
:1015F000B4010F900F90CF91DF9108951F920F9239
:101600000FB60F9211242F933F934F935F936F93D5
:101610007F938F939F93AF93BF93EF93FF93DF934A
:10162000CF93CDB7DEB7E091AE01F091AF01099550
:10163000CF91DF91FF91EF91BF91AF919F918F91EA
:101640007F916F915F914F913F912F910F900FBEBE
:101650000F901F9018951F920F920FB60F921124A2
:101660002F933F934F935F936F937F938F939F93AA
:10167000AF93BF93EF93FF93DF93CF93CDB7DEB7D5
:10168000E091B201F091B3010995CF91DF91FF9103
:10169000EF91BF91AF919F918F917F916F915F91EA
:1016A0004F913F912F910F900FBE0F901F90189563
:1016B0001F920F920FB60F9211242F933F934F93C7
:1016C0005F936F937F938F939F93AF93BF93EF93AA
:1016D000FF93DF93CF93CDB7DEB7E091B201F091E6
:1016E000B3010995CF91DF91FF91EF91BF91AF9138
:1016F0009F918F917F916F915F914F913F912F912A
:101700000F900FBE0F901F9018951F920F920FB65B
:101710000F9211242F933F934F935F936F937F9377
:101720008F939F93AF93BF93EF93FF93DF93CF93E9
:10173000CDB7DEB7E091B401F091B5010995CF9135
:10174000DF91FF91EF91BF91AF919F918F917F9129
:101750006F915F914F913F912F910F900FBE0F901E
:101760001F901895DF93CF93CDB7DEB7A3E5B0E018
:10177000E3E5F0E080818F7B8C93A3E5B0E0E3E5C7
:10178000F0E0808188608C93CF91DF910895DF93A2
:10179000CF93CDB7DEB7A3E5B0E0E3E5F0E080811D
:1017A000887F8C93A3E5B0E0E3E5F0E08081826080
:1017B0008C93CF91DF910895DF93CF93CDB7DEB7B0
:1017C000A3E5B0E0E3E5F0E08081887F8C93CF91E2
:1017D000DF910895DF93CF930F92CDB7DEB7898362
:1017E000E2E5F0E0898180830F90CF91DF91089549
:1017F000DF93CF930F92CDB7DEB78983ECE5F0E0AE
:10180000898180830F90CF91DF910895DF93CF93EB
:101810000F92CDB7DEB78983ECE5F0E08981882FA0
:1018200090E0982F882724E630E0B9010E94032138
:10183000CB01815080830F90CF91DF910895DF938A
:10184000CF930F92CDB7DEB78983ECE5F0E08981C5
:10185000882F90E0982F882722E330E0B9010E947A
:101860000321CB01815080830F90CF91DF910895A8
:10187000DF93CF93CDB7DEB7A9E5B0E0E9E5F0E0BF
:10188000808181608C93CF91DF910895DF93CF9316
:10189000CDB7DEB7A9E5B0E0E9E5F0E080818E7F65
:1018A0008C93CF91DF910895DF93CF93CDB7DEB7BF
:1018B000A9E5B0E0E9E5F0E0808182608C93CF910A
:1018C000DF910895DF93CF93CDB7DEB7A9E5B0E000
:1018D000E9E5F0E080818D7F8C93CF91DF910895D1
:1018E000DF93CF9300D0CDB7DEB79A838983898108
:1018F0009A81009731F089819A819093B701809302
:10190000B6010F900F90CF91DF910895DF93CF93A1
:1019100000D0CDB7DEB79A83898389819A810097F9
:1019200031F089819A819093B9018093B8010F9029
:101930000F90CF91DF9108951F920F920FB60F92E3
:1019400011242F933F934F935F936F937F938F93C4
:101950009F93AF93BF93EF93FF93DF93CF93CDB755
:10196000DEB7E091B601F091B7010995CF91DF9113
:10197000FF91EF91BF91AF919F918F917F916F9167
:101980005F914F913F912F910F900FBE0F901F903D
:1019900018951F920F920FB60F9211242F933F9319
:1019A0004F935F936F937F938F939F93AF93BF9367
:1019B000EF93FF93DF93CF93CDB7DEB7E091B801FC
:1019C000F091B9010995CF91DF91FF91EF91BF910E
:1019D000AF919F918F917F916F915F914F913F91C7
:1019E0002F910F900FBE0F901F901895DF93CF93FC
:1019F000CDB7DEB7AFE4B0E0EFE4F0E080818E7FFA
:101A00008C93AFE4B0E0EFE4F0E080818D7F8C93C5
:101A1000AEE4B0E0EEE4F0E08081877F8C93AEE44A
:101A2000B0E0EEE4F0E080818F7E8C93AEE4B0E035
:101A3000EEE4F0E0808180648C93A9E5B0E0E9E514
:101A4000F0E0808180628C93AEE4B0E0EEE4F0E000
:101A5000808181608C93AEE4B0E0EEE4F0E08081C0
:101A600082608C93AEE4B0E0EEE4F0E080818B7FA6
:101A70008C93CF91DF910895DF93CF9300D0CDB7B2
:101A8000DEB79A8389830F900F90CF91DF910895ED
:101A9000DF93CF9300D0CDB7DEB79A8389830F90C1
:101AA0000F90CF91DF910895DF93CF93CDB7DEB73D
:101AB000AFE5B0E0EFE5F0E0808180688C93CF91F6
:101AC000DF910895DF93CF93CDB7DEB7AFE5B0E0F8
:101AD000EFE5F0E080818F778C93CF91DF910895CF
:101AE000DF93CF93CDB7DEB728970FB6F894DEBF5C
:101AF0000FBECDBF89836A838A81882309F0D9C04C
:101B00008981869586958695282F30E038872F83A2
:101B10008F8198858130910509F444C02F813885E3
:101B2000223031052CF48F819885009771F07EC2A8
:101B30002F8138852230310509F461C08F81988565
:101B40008330910509F488C071C2AAE3B0E0EAE3EA
:101B5000F0E08081482F8981882F90E09C012770D8
:101B6000307081E090E002C0880F991F2A95E2F75B
:101B7000842B8C93ABE3B0E0EBE3F0E08081482F63
:101B80008981882F90E09C012770307081E090E07F
:101B9000022E02C0880F991F0A94E2F780958423D1
:101BA0008C9344C2A7E3B0E0E7E3F0E08081482FE4
:101BB0008981882F90E09C012770307081E090E04F
:101BC00002C0880F991F2A95E2F7842B8C93A8E313
:101BD000B0E0E8E3F0E08081482F8981882F90E031
:101BE0009C012770307081E090E0022E02C0880FC7
:101BF000991F0A94E2F7809584238C9317C2A4E37B
:101C0000B0E0E4E3F0E08081482F8981882F90E004
:101C10009C012770307081E090E002C0880F991F0E
:101C20002A95E2F7842B8C93A5E3B0E0E5E3F0E09E
:101C30008081482F8981882F90E09C012770307027
:101C400081E090E0022E02C0880F991F0A94E2F70B
:101C5000809584238C93EAC1A1E3B0E0E1E3F0E056
:101C60008081482F8981882F90E09C0127703070F7
:101C700081E090E002C0880F991F2A95E2F7842B3B
:101C80008C93A2E3B0E0E2E3F0E08081482F898109
:101C9000882F90E09C012770307081E090E0022E48
:101CA00002C0880F991F0A94E2F7809584238C93D1
:101CB000BDC18A81813009F0DDC089818695869514
:101CC0008695282F30E03E832D838D819E81813043
:101CD000910509F445C02D813E81223031052CF457
:101CE0008D819E81009771F0A1C12D813E812230AE
:101CF000310509F463C08D819E818330910509F41B
:101D00008BC094C1AAE3B0E0EAE3F0E08081482F01
:101D10008981882F90E09C012770307081E090E0ED
:101D200002C0880F991F2A95E2F7809584238C932F
:101D3000ABE3B0E0EBE3F0E08081482F8981882FAE
:101D400090E09C012770307081E090E0022E02C08C
:101D5000880F991F0A94E2F7809584238C9366C1BB
:101D6000A7E3B0E0E7E3F0E08081482F8981882F86
:101D700090E09C012770307081E090E002C0880FF5
:101D8000991F2A95E2F7809584238C93A8E3B0E00D
:101D9000E8E3F0E08081482F8981882F90E09C0162
:101DA0002770307081E090E0022E02C0880F991FEA
:101DB0000A94E2F7809584238C9338C1A4E3B0E0C1
:101DC000E4E3F0E08081482F8981882F90E09C0136
:101DD0002770307081E090E002C0880F991F2A952B
:101DE000E2F7809584238C93A5E3B0E0E5E3F0E08F
:101DF0008081482F8981882F90E09C012770307066
:101E000081E090E0022E02C0880F991F0A94E2F749
:101E1000809584238C930AC1A1E3B0E0E1E3F0E074
:101E20008081482F8981882F90E09C012770307035
:101E300081E090E002C0880F991F2A95E2F7809513
:101E400084238C93A2E3B0E0E2E3F0E08081482FAA
:101E50008981882F90E09C012770307081E090E0AC
:101E6000022E02C0880F991F0A94E2F780958423FE
:101E70008C93DCC08A81823009F0D8C08981869534
:101E800086958695282F30E03C832B838B819C811F
:101E90008130910509F444C02B813C812230310509
:101EA0002CF48B819C81009771F0C0C02B813C8108
:101EB0002230310509F461C08B819C81833091050A
:101EC00009F488C0B3C0AAE3B0E0EAE3F0E080819F
:101ED000482F8981882F90E09C012770307081E025
:101EE00090E002C0880F991F2A95E2F7809584231D
:101EF0008C93ABE3B0E0EBE3F0E08081482F898185
:101F0000882F90E09C012770307081E090E0022ED5
:101F100002C0880F991F0A94E2F7842B8C9386C025
:101F2000A7E3B0E0E7E3F0E08081482F8981882FC4
:101F300090E09C012770307081E090E002C0880F33
:101F4000991F2A95E2F7809584238C93A8E3B0E04B
:101F5000E8E3F0E08081482F8981882F90E09C01A0
:101F60002770307081E090E0022E02C0880F991F28
:101F70000A94E2F7842B8C9359C0A4E3B0E0E4E325
:101F8000F0E08081482F8981882F90E09C012770A4
:101F9000307081E090E002C0880F991F2A95E2F727
:101FA000809584238C93A5E3B0E0E5E3F0E08081A5
:101FB000482F8981882F90E09C012770307081E044
:101FC00090E0022E02C0880F991F0A94E2F7842B3A
:101FD0008C932CC0A1E3B0E0E1E3F0E08081482FD6
:101FE0008981882F90E09C012770307081E090E01B
:101FF00002C0880F991F2A95E2F7809584238C935D
:10200000A2E3B0E0E2E3F0E08081482F8981882FED
:1020100090E09C012770307081E090E0022E02C0B9
:10202000880F991F0A94E2F7842B8C9328960FB699
:10203000F894DEBF0FBECDBFCF91DF910895DF933F
:10204000CF9300D00F92CDB7DEB780E290E09B83B4
:102050008A83198219C08981882F90E0880F991F7F
:10206000FC01E759FE4F20818981882F90E0880F7D
:10207000991FFC01E659FE4F9081822F692F0E9423
:10208000700D89818F5F89838981282F30E08A8153
:102090009B8128173907FCF20F900F900F90CF917A
:1020A000DF910895DF93CF9300D000D000D0CDB75B
:1020B000DEB789836A838A81813009F07FC0898194
:1020C000869586958695282F30E03E832D838D81D9
:1020D0009E818130910569F12D813E81223031054B
:1020E0002CF48D819E81009769F0EAC02D813E819C
:1020F00022303105A9F18D819E818330910509F44B
:1021000046C0DEC0ABE3B0E0EBE3F0E08081482FF7
:102110008981882F90E09C012770307081E090E0E9
:10212000022E02C0880F991F0A94E2F7842B8C9329
:10213000C7C0A8E3B0E0E8E3F0E08081482F8981E0
:10214000882F90E09C012770307081E090E0022E93
:1021500002C0880F991F0A94E2F7842B8C93B0C0B9
:10216000A5E3B0E0E5E3F0E08081482F8981882F86
:1021700090E09C012770307081E090E0022E02C058
:10218000880F991F0A94E2F7842B8C9399C0A2E3DD
:10219000B0E0E2E3F0E08081482F8981882F90E071
:1021A0009C012770307081E090E0022E02C0880F01
:1021B000991F0A94E2F7842B8C9382C089818695BB
:1021C00086958695282F30E03C832B838B819C81DC
:1021D0008130910571F12B813C81223031052CF445
:1021E0008B819C81009769F06BC02B813C812230F0
:1021F0003105B9F18B819C818330910509F449C087
:102200005FC0ABE3B0E0EBE3F0E08081482F898171
:10221000882F90E09C012770307081E090E0022EC2
:1022200002C0880F991F0A94E2F7809584238C934B
:1022300047C0A8E3B0E0E8E3F0E08081482F89815F
:10224000882F90E09C012770307081E090E0022E92
:1022500002C0880F991F0A94E2F7809584238C931B
:102260002FC0A5E3B0E0E5E3F0E08081482F89814D
:10227000882F90E09C012770307081E090E0022E62
:1022800002C0880F991F0A94E2F7809584238C93EB
:1022900017C0A2E3B0E0E2E3F0E08081482F89813B
:1022A000882F90E09C012770307081E090E0022E32
:1022B00002C0880F991F0A94E2F7809584238C93BB
:1022C00026960FB6F894DEBF0FBECDBFCF91DF913B
:1022D0000895DF93CF9300D000D0CDB7DEB78A83C7
:1022E00019828A81869586958695282F30E03C83D1
:1022F0002B834B815C814130510559F18B819C814D
:102300008230910534F42B813C812115310569F02F
:102310005BC04B815C814230510579F18B819C819E
:102320008330910509F43DC04FC0E9E3F0E08081BE
:10233000282F30E08A81882F90E087709070A90163
:1023400002C0559547958A95E2F7CA018170898345
:102350003BC0E6E3F0E08081282F30E08A81882FBF
:1023600090E087709070A90102C0559547958A95B5
:10237000E2F7CA018170898327C0E3E3F0E080813E
:10238000282F30E08A81882F90E087709070A90113
:1023900002C0559547958A95E2F7CA0181708983F5
:1023A00013C0E0E3F0E08081282F30E08A81882F9D
:1023B00090E087709070A90102C0559547958A9565
:1023C000E2F7CA018170898389810F900F900F9085
:1023D0000F90CF91DF910895DF93CF9300D00F92AC
:1023E000CDB7DEB789838981869586958695282F16
:1023F00030E03B832A838A819B818130910569F19A
:102400002A813B81223031052CF48A819B810097FF
:1024100069F067C02A813B8122303105A9F18A81A8
:102420009B818330910509F446C05BC0ABE3B0E00B
:10243000EBE3F0E08081482F8981882F90E09C01B8
:102440002770307081E090E0022E02C0880F991F43
:102450000A94E2F784278C9344C0A8E3B0E0E8E351
:10246000F0E08081482F8981882F90E09C012770BF
:10247000307081E090E0022E02C0880F991F0A940C
:10248000E2F784278C932DC0A5E3B0E0E5E3F0E00C
:102490008081482F8981882F90E09C0127703070BF
:1024A00081E090E0022E02C0880F991F0A94E2F7A3
:1024B00084278C9316C0A2E3B0E0E2E3F0E08081D1
:1024C000482F8981882F90E09C012770307081E02F
:1024D00090E0022E02C0880F991F0A94E2F7842729
:1024E0008C930F900F900F90CF91DF910895DF9311
:1024F000CF9300D000D0CDB7DEB789836A838981BE
:10250000282F30E03C832B838B819C818130910587
:10251000D1F02B813C81223031052CF48B819C81C0
:10252000009761F01EC02B813C812230310581F083
:102530008B819C818330910581F013C0EBE3F0E047
:102540008A8180830EC0E8E3F0E08A81808309C03D
:10255000E5E3F0E08A81808304C0E2E3F0E08A8171
:1025600080830F900F900F900F90CF91DF9108957F
:10257000DF93CF9300D000D0CDB7DEB78A83198226
:102580008A81282F30E03C832B838B819C81813092
:102590009105D1F02B813C81223031052CF48B81C7
:1025A0009C81009761F01EC02B813C812230310557
:1025B00081F08B819C818330910581F013C0E9E328
:1025C000F0E0808189830EC0E6E3F0E080818983BA
:1025D00009C0E3E3F0E08081898304C0E0E3F0E038
:1025E0008081898389810F900F900F900F90CF91F8
:1025F000DF910895DF93CF93CDB7DEB78091C1010E
:10260000882379F4E6E4F0E0808191819093BB0126
:102610008093BA0181E00E94170A81E08093C10192
:1026200011C08091C101813069F4E6E4F0E080815D
:1026300091819093BD018093BC010E94980A82E031
:102640008093C101CF91DF910895DF93CF93CDB7F0
:10265000DEB78091C0018F5F8093C001CF91DF9181
:102660000895DF93CF93CDB7DEB70E9469098AEF53
:1026700092E10E94E80A85E293E10E94A60A0E9484
:10268000360ACF91DF9108950F931F93DF93CF9375
:10269000CDB7DEB7C357D0400FB6F894DEBF0FBE3C
:1026A000CDBFFE01E159FF4F8083FE01E059FF4F8E
:1026B000718360830E948C0980E090E00E94AF09E2
:1026C000FE01E159FF4F8081282F30E0E4963FAFB3
:1026D0002EAFE497E4968EAD9FADE49781309105DF
:1026E00009F452C1E496EEADFFADE497E230F10596
:1026F00044F4E4962EAD3FADE4972115310591F0F9
:10270000F9C3E4968EAD9FADE4978230910509F44C
:1027100064C2E496EEADFFADE497E330F10509F451
:1027200023C3E8C380E161E00E945210FE01E55935
:10273000FF4F80E090E0A0E2B1E480839183A28328
:10274000B3838E0109591F4FFE01E559FF4F608188
:102750007181828193812BEA3AEA4AE250E40E9435
:102760001F02DC01CB01F80180839183A283B38334
:10277000FE01E959FF4F608171818281938120E0E0
:1027800030E040E85FE30E945504882334F4FE0102
:10279000EA59FF4F81E08083E0C0FE01E959FF4F15
:1027A000608171818281938120E030E04FE753E4C2
:1027B0000E94F50318160CF0C0C0FE01E559FF4F4A
:1027C000608171818281938120E030E04AE754E4A6
:1027D0000E941903DC01CB01FE01EE59FF4F8083FB
:1027E0009183A283B3838E01025A1F4FFE01EE59DB
:1027F000FF4F608171818281938120E030E04AEF58
:1028000054E40E941F02DC01CB01F8018083918314
:10281000A283B383FE01E25AFF4F608171818281FE
:10282000938120E030E040E85FE30E945504882374
:1028300044F4FE01E45AFF4F81E090E091838083ED
:1028400064C0FE01E25AFF4F6081718182819381F1
:1028500020E03FEF4FE757E40E94F50318160CF015
:1028600043C0FE01EE59FF4F6081718182819381E7
:1028700020E030E040E251E40E941F02DC01CB0185
:102880008E01045A1F4FBC01CD010E944900DC019A
:10289000CB01F801918380831FC0FE01E65AFF4FF0
:1028A00088EC90E091838083FE01E65AFF4F80819F
:1028B00091810197F1F7FE01E65AFF4F91838083E2
:1028C000DE01A45ABF4FFE01E45AFF4F808191817F
:1028D000019711969C938E93FE01E45AFF4F8081DD
:1028E00091810097D1F64BC08E01045A1F4FFE0113
:1028F000E25AFF4F60817181828193810E94490079
:10290000DC01CB01F80191838083DE01A85ABF4F1F
:10291000FE01E45AFF4F8081918111969C938E9322
:10292000FE01E85AFF4F808191810197F1F7FE0186
:10293000E85AFF4F9183808322C08E010A591F4FAE
:10294000FE01E959FF4F60817181828193810E946C
:102950004900DC01CB01F8018083DE01A95ABF4F99
:10296000FE01EA59FF4F80818C93FE01E95AFF4F27
:1029700080818A95F1F7FE01E95AFF4F808380E15B
:1029800060E00E945210B6C281E161E00E945210E4
:10299000FE01ED5AFF4F80E090E0A0E2B1E48083B9
:1029A0009183A283B3838E01015B1F4FFE01ED5A19
:1029B000FF4F60817181828193812BEA3AEA4AE27A
:1029C00050E40E941F02DC01CB01F8018083918357
:1029D000A283B383FE01E15BFF4F6081718182813D
:1029E000938120E030E040E85FE30E9455048823B3
:1029F00034F4FE01E25BFF4F81E08083E0C0FE0122
:102A0000E15BFF4F608171818281938120E030E042
:102A10004FE753E40E94F50318160CF0C0C0FE0106
:102A2000ED5AFF4F608171818281938120E030E017
:102A30004AE754E40E941903DC01CB01FE01E65B86
:102A4000FF4F80839183A283B3838E010A5B1F4F64
:102A5000FE01E65BFF4F608171818281938120E0FE
:102A600030E04AEF54E40E941F02DC01CB01F80180
:102A700080839183A283B383FE01EA5BFF4F608171
:102A800071818281938120E030E040E85FE30E9421
:102A90005504882344F4FE01EC5BFF4F81E090E095
:102AA0009183808364C0FE01EA5BFF4F6081718186
:102AB0008281938120E03FEF4FE757E40E94F503C6
:102AC00018160CF043C0FE01E65BFF4F6081718178
:102AD0008281938120E030E040E251E40E941F02B5
:102AE000DC01CB018E010C5B1F4FBC01CD010E94AC
:102AF0004900DC01CB01F801918380831FC0FE01F6
:102B0000EE5BFF4F88EC90E091838083FE01EE5BEB
:102B1000FF4F808191810197F1F7FE01EE5BFF4F3E
:102B200091838083DE01AC5BBF4FFE01EC5BFF4F06
:102B300080819181019711969C938E93FE01EC5BAD
:102B4000FF4F808191810097D1F642C08E010C5BCE
:102B50001F4FFE01EA5BFF4F60817181828193818B
:102B60000E944900DC01CB01F80191838083DE01E2
:102B7000A05CBF4FFE01EC5BFF4F808191811196FD
:102B80009C938E93FE01E05CFF4F808191810197C1
:102B9000F1F7FE01E05CFF4F9183808319C08E0145
:102BA000025B1F4FFE01E15BFF4F608171818281FB
:102BB00093810E944900DC01CB01F8018083FE0172
:102BC000E25BFF4F80818FAF8FAD8A95F1F78FAFBA
:102BD00081E160E00E9452108DC182E161E00E94BB
:102BE000521080E090E0A0E2B1E48BAF9CAFADAFBB
:102BF000BEAF6BAD7CAD8DAD9EAD2BEA3AEA4AE23D
:102C000050E40E941F02DC01CB018FAB98AFA9AF4B
:102C1000BAAF6FA978AD89AD9AAD20E030E040E859
:102C20005FE30E94550488231CF481E08EAB91C0C1
:102C30006FA978AD89AD9AAD20E030E04FE753E45D
:102C40000E94F50318160CF07BC06BAD7CAD8DAD0A
:102C50009EAD20E030E04AE754E40E941903DC0115
:102C6000CB018AAB9BABACABBDAB6AA97BA98CA9F2
:102C70009DA920E030E04AEF54E40E941F02DC01ED
:102C8000CB018EA79FA7A8ABB9AB6EA57FA588A9DE
:102C900099A920E030E040E85FE30E9455048823D2
:102CA0002CF481E090E09DA78CA73FC06EA57FA586
:102CB00088A999A920E03FEF4FE757E40E94F50368
:102CC00018164CF56AA97BA98CA99DA920E030E0D3
:102CD00040E251E40E941F02DC01CB01BC01CD01A6
:102CE0000E944900DC01CB019DA78CA70FC088EC96
:102CF00090E09BA78AA78AA59BA50197F1F79BA7C0
:102D00008AA78CA59DA501979DA78CA78CA59DA59D
:102D1000009769F724C06EA57FA588A999A90E948C
:102D20004900DC01CB019DA78CA78CA59DA599A787
:102D300088A788A599A50197F1F799A788A70FC03B
:102D40006FA978AD89AD9AAD0E944900DC01CB0135
:102D50008EAB8EA98FA38FA18A95F1F78FA382E105
:102D600060E00E945210C6C083E161E00E945210F0
:102D700080E090E0A0E2B1E48BA39CA3ADA3BEA34E
:102D80006BA17CA18DA19EA12BEA3AEA4AE250E414
:102D90000E941F02DC01CB018F8F98A3A9A3BAA3C5
:102DA0006F8D78A189A19AA120E030E040E85FE32F
:102DB0000E94550488231CF481E08E8F91C06F8D92
:102DC00078A189A19AA120E030E04FE753E40E9466
:102DD000F50318160CF07BC06BA17CA18DA19EA100
:102DE00020E030E04AE754E40E941903DC01CB0103
:102DF0008A8F9B8FAC8FBD8F6A8D7B8D8C8D9D8DC7
:102E000020E030E04AEF54E40E941F02DC01CB01D5
:102E10008E8B9F8BA88FB98F6E897F89888D998DB6
:102E200020E030E040E85FE30E94550488232CF462
:102E300081E090E09D8B8C8B3FC06E897F89888D6F
:102E4000998D20E03FEF4FE757E40E94F5031816F5
:102E50004CF56A8D7B8D8C8D9D8D20E030E040E2BD
:102E600051E40E941F02DC01CB01BC01CD010E9494
:102E70004900DC01CB019D8B8C8B0FC088EC90E06E
:102E80009B8B8A8B8A899B890197F1F79B8B8A8B15
:102E90008C899D8901979D8B8C8B8C899D8900974E
:102EA00069F724C06E897F89888D998D0E944900B9
:102EB000DC01CB019D8B8C8B8C899D89998B888BB8
:102EC000888999890197F1F7998B888B0FC06F8D4D
:102ED00078A189A19AA10E944900DC01CB018E8FC3
:102EE0008E8D8F878F858A95F1F78F8783E160E0DC
:102EF0000E9452101092C1010E948A0A80E00E9432
:102F0000170A8091C1018230E0F32091BC01309119
:102F1000BD018091BA019091BB01281B390B8091B2
:102F2000C001882F90E0A0E0B0E0DC01992788275D
:102F3000820F931F9093BF018093BE018091BE01C9
:102F40009091BF012AE330E0B9010E94EF20CB014C
:102F5000FE01E059FF4F0190F081E02D80830E9437
:102F6000A10980E090E0A8ECB1E48B879C87AD8755
:102F7000BE876B857C858D859E8520E030E04AEF9D
:102F800054E40E941F02DC01CB018F839887A9873C
:102F9000BA876F81788589859A8520E030E040E89E
:102FA0005FE30E94550488232CF481E090E09E8327
:102FB0008D833FC06F81788589859A8520E03FEFBA
:102FC0004FE757E40E94F50318164CF56B857C8596
:102FD0008D859E8520E030E040E251E40E941F0292
:102FE000DC01CB01BC01CD010E944900DC01CB0119
:102FF0009E838D830FC088EC90E09C838B838B81B4
:103000009C810197F1F79C838B838D819E81019731
:103010009E838D838D819E81009769F714C06F8197
:10302000788589859A850E944900DC01CB019E83C1
:103030008D838D819E819A83898389819A8101976D
:10304000F1F79A838983CD58DF4F0FB6F894DEBF2E
:103050000FBECDBFCF91DF911F910F910895DF93E8
:10306000CF93CDB7DEB784E160E00E94521085E1D6
:1030700060E00E94521087E160E00E94521086E1F9
:1030800060E00E9452100E941E08CF91DF910895C7
:10309000DF93CF930F92CDB7DEB7898389810E94EA
:1030A00079080E943A0884E161E00E94521085E1AB
:1030B00060E00E94521081E0809368010F90CF91F0
:1030C000DF910895DF93CF930F92CDB7DEB7898359
:1030D00089810E9479080E943A0884E160E00E9498
:1030E000521085E161E00E945210109268010F9029
:1030F000CF91DF910895DF93CF93CDB7DEB787E10E
:1031000060E00E94521086E161E00E94521087E167
:1031100061E00E94521086E160E00E945210CF915F
:10312000DF910895DF93CF93CDB7DEB760970FB6E9
:10313000F894DEBF0FBECDBF888B8889882309F441
:1031400093C086E160E00E9452108889882F90E049
:103150009C01220F331FC901880F991F880F991FE7
:10316000820F931F8F8787E161E00E9452108F8545
:10317000882F90E0A0E0B0E0BC01CD010E94D9040E
:10318000DC01CB018B879C87AD87BE876B857C85F7
:103190008D859E8520E030E04AEF54E40E941F02B6
:1031A000DC01CB018F839887A987BA876F817885E7
:1031B00089859A8520E030E040E85FE30E9455046D
:1031C00088232CF481E090E09E838D833FC06F8143
:1031D000788589859A8520E03FEF4FE757E40E9484
:1031E000F50318164CF56B857C858D859E8520E052
:1031F00030E040E251E40E941F02DC01CB01BC013F
:10320000CD010E944900DC01CB019E838D830FC05C
:1032100088EC90E09C838B838B819C810197F1F7F4
:103220009C838B838D819E8101979E838D838D816D
:103230009E81009769F714C06F81788589859A858A
:103240000E944900DC01CB019E838D838D819E818C
:103250009A83898389819A810197F1F79A83898377
:1032600087E160E00E94521060960FB6F894DEBFCE
:103270000FBECDBFCF91DF910895DF93CF93CDB730
:10328000DEB787E161E00E94521086E160E00E94B3
:10329000521087E160E00E94521086E161E00E94D6
:1032A0005210CF91DF910895DF93CF9300D0CDB727
:1032B000DEB78A838A818823B1F087E160E00E94CB
:1032C00052108A81882F90E09C01220F331FC90180
:1032D000880F991F880F991F820F931F898386E19A
:1032E00061E00E9452100F900F90CF91DF910895EE
:1032F000DF93CF93CDB7DEB784E160E00E94521038
:1033000085E160E00E9452100E944F08CF91DF914A
:103310000895DF93CF93CDB7DEB72E970FB6F8940D
:10332000DEBF0FBECDBF80916801813021F48BE4F8
:103330000E94621807C080916801882319F482E313
:103340000E94481880E090E0AAEFB3E48B879C8746
:10335000AD87BE876B857C858D859E8520E030E0BE
:103360004AEF54E40E941F02DC01CB018F8398874F
:10337000A987BA876F81788589859A8520E030E0B2
:1033800040E85FE30E94550488232CF481E090E03C
:103390009E838D833FC06F81788589859A8520E0E3
:1033A0003FEF4FE757E40E94F50318164CF56B8585
:1033B0007C858D859E8520E030E040E251E40E94CE
:1033C0001F02DC01CB01BC01CD010E944900DC01E0
:1033D000CB019E838D830FC088EC90E09C838B8310
:1033E0008B819C810197F1F79C838B838D819E81DA
:1033F00001979E838D838D819E81009769F714C00C
:103400006F81788589859A850E944900DC01CB010E
:103410009E838D838D819E819A83898389819A8100
:103420000197F1F79A83898384E160E00E9452104A
:1034300085E160E00E9452100E944F082E960FB660
:10344000F894DEBF0FBECDBFCF91DF910895DF931B
:10345000CF93CDB7DEB787E160E00E94521086E1DE
:1034600060E00E945210CF91DF910895DF93CF93D7
:10347000CDB7DEB70E941F100E94540D0E94711A32
:10348000CF91DF910895DF93CF93CDB7DEB78091D1
:10349000C301882319F40E94C81A06C08091C30191
:1034A000813011F40E944C1DCF91DF910895DF937C
:1034B000CF93CDB7DEB78091C4019091C501A091A3
:1034C000C601B091C7010196A11DB11D8093C40131
:1034D0009093C501A093C601B093C701CF91DF912E
:1034E0000895DF93CF93CDB7DEB70E94B20B0E9451
:1034F000540C87E59AE10E94860C8AEF0E94F80B33
:103500000E9431130E942F1880E00E9469118130BF
:10351000D9F3CF91DF910895DF93CF93CDB7DEB785
:103520002AEC31E080E0B9010E9444138091CA0185
:10353000883060F00E943D1982E30E94481806C05E
:103540002AEC31E080E0B9010E9444138091CA0165
:103550008830B0F729EC31E081E0B9010E944413D2
:103560008091C9018A3048F00E947B1806C029EC7E
:1035700031E081E0B9010E9444138091C9018A3091
:10358000B0F70E9478190E94271ACF91DF91089511
:10359000DF93CF9300D0CDB7DEB78091C201282F43
:1035A00030E03A83298389819A818130910599F0AD
:1035B00029813A8122303105E9F089819A81009789
:1035C00009F060C00E948C1A81E08093C20181E4FE
:1035D0000E94481857C02AEC31E080E0B9010E94EF
:1035E00044138091CA01803108F44CC082E080937A
:1035F000C20148C00E94C70B24C08091C4019091B1
:10360000C501A091C601B091C70120E931E040E0B9
:1036100050E0BC01CD010E941621DC01CB010097D6
:10362000A105B10571F42AEC31E080E0B9010E94F6
:1036300044138091CA01803120F481E08093C2015B
:1036400010C08091C4019091C501A091C601B091B4
:10365000C701803D27E0920720E0A20720E0B207E3
:1036600060F20E94DC0B1092C4011092C50110920E
:10367000C6011092C7018091C201813019F081E02A
:103680008093C3010F900F90CF91DF910895DF9346
:10369000CF93CDB7DEB78091C4019091C501A091C1
:1036A000C601B091C7010196A11DB11D8093C4014F
:1036B0009093C501A093C601B093C7018091C40146
:1036C0009091C501A091C601B091C70128EB3BE0E4
:1036D00040E050E0BC01CD010E941621DC01CB018D
:1036E0000097A105B10519F489E00E94EC11CF9172
:1036F000DF910895DF93CF93CDB7DEB76C970FB608
:10370000F894DEBF0FBECDBF2AEC31E080E0B901F6
:103710000E9444138091CA01883028F00E943D190C
:1037200081E40E94481828EC31E082E0B9010E944F
:1037300044132AEC31E080E0B9010E9444138091E7
:10374000C8018D3020F08091CA01883060F729ECE3
:1037500031E081E0B9010E9444138091C9018830B1
:1037600010F00E947B1828EC31E082E0B9010E9441
:10377000441329EC31E081E0B9010E9444138091A7
:10378000C801883020F08091C901893060F781E458
:103790000E94621880E090E0A8ECB2E4898F9A8FD2
:1037A000AB8FBC8F698D7A8D8B8D9C8D20E030E046
:1037B0004AEF54E40E941F02DC01CB018D8B9E8BEB
:1037C000AF8BB88F6D897E898F89988D20E030E02E
:1037D00040E85FE30E94550488232CF481E090E0E8
:1037E0009C8B8B8B3FC06D897E898F89988D20E063
:1037F0003FEF4FE757E40E94F50318164CF5698D2B
:103800007A8D8B8D9C8D20E030E040E251E40E9467
:103810001F02DC01CB01BC01CD010E944900DC018B
:10382000CB019C8B8B8B0FC088EC90E09A8B898BA3
:1038300089899A890197F1F79A8B898B8B899C8961
:1038400001979C8B8B8B8B899C89009769F714C09F
:103850006D897E898F89988D0E944900DC01CB019A
:103860009C8B8B8B8B899C89988B8F878F85988974
:103870000197F1F7988B8F870E94781929EC31E036
:1038800081E0B9010E9444138091C901883028F079
:103890000E943D1981E40E9462182BEC31E083E024
:1038A000B9010E94441329EC31E081E0B9010E9482
:1038B00044138091CB018D3020F08091C901883074
:1038C00060F72AEC31E080E0B9010E944413809156
:1038D000CA01883010F00E947B182BEC31E083E0A5
:1038E000B9010E9444132AEC31E080E0B9010E9442
:1038F00044138091CB01883020F08091CA01893037
:1039000060F781E40E94621880E090E0A8ECB2E4E5
:103910008B879C87AD87BE876B857C858D859E85D3
:1039200020E030E04AEF54E40E941F02DC01CB01AA
:103930008F839887A987BA876F81788589859A85CB
:1039400020E030E040E85FE30E94550488232CF437
:1039500081E090E09E838D833FC06F81788589856B
:103960009A8520E03FEF4FE757E40E94F5031816D1
:103970004CF56B857C858D859E8520E030E040E2AE
:1039800051E40E941F02DC01CB01BC01CD010E9469
:103990004900DC01CB019E838D830FC088EC90E051
:1039A0009C838B838B819C810197F1F79C838B8314
:1039B0008D819E8101979E838D838D819E8100974D
:1039C00069F714C06F81788589859A850E944900BE
:1039D000DC01CB019E838D838D819E819A838983B7
:1039E00089819A810197F1F79A8389830E947819D6
:1039F0002AEC31E080E0B9010E94441329EC31E067
:103A000081E0B9010E9444138091CA01883008F016
:103A10007BCE8091C901883008F076CE8091CA01B2
:103A2000282F30E08091C901882F90E0A901481B20
:103A3000590BCA018630910584F08091C901282F65
:103A400030E08091CA01882F90E0A901481B590BF2
:103A5000CA01863091050CF057CE0E94271A80913A
:103A6000C901883050F087E30E94621806C02BEC31
:103A700031E083E0B9010E9444138091CB018D3085
:103A8000B0F70E9478196C960FB6F894DEBF0FBE9F
:103A9000CDBFCF91DF9108950F931F93DF93CF9305
:103AA000CDB7DEB7C455D0400FB6F894DEBF0FBE19
:103AB000CDBF0E94C70B1092C4011092C501109295
:103AC000C6011092C70129EC31E081E0B9010E94E2
:103AD00044138091C9018B3080F08091C401909192
:103AE000C501A091C601B091C701883E23E09207AD
:103AF00020E0A20720E0B20730F30E94DC0B109216
:103B0000C4011092C5011092C6011092C7010E9413
:103B10008919FE01EF5AFF4F80E090E0A0EFB1E479
:103B200080839183A283B3838E01035B1F4FFE01C9
:103B3000EF5AFF4F608171818281938120E030E0F4
:103B40004AEF54E40E941F02DC01CB01F80180839C
:103B50009183A283B383FE01E35BFF4F6081718198
:103B60008281938120E030E040E85FE30E945504C9
:103B7000882344F4FE01E55BFF4F81E090E09183F0
:103B8000808364C0FE01E35BFF4F608171818281AD
:103B9000938120E03FEF4FE757E40E94F5031816AA
:103BA0000CF043C0FE01EF5AFF4F608171818281AA
:103BB000938120E030E040E251E40E941F02DC01EA
:103BC000CB018E01055B1F4FBC01CD010E94490056
:103BD000DC01CB01F801918380831FC0FE01E75B0C
:103BE000FF4F88EC90E091838083FE01E75BFF4FFD
:103BF000808191810197F1F7FE01E75BFF4F91838F
:103C00008083DE01A55BBF4FFE01E55BFF4F808136
:103C10009181019711969C938E93FE01E55BFF4F76
:103C2000808191810097D1F627C08E01055B1F4FDF
:103C3000FE01E35BFF4F60817181828193810E946D
:103C40004900DC01CB01F80191838083DE01A95B8F
:103C5000BF4FFE01E55BFF4F808191818D939C9367
:103C6000FE01E95BFF4F808191810197F1F7FE0131
:103C7000E95BFF4F918380830E947B18FE01ED5B1F
:103C8000FF4F80E090E0A8E4B2E480839183A283B8
:103C9000B3838E01015C1F4FFE01ED5BFF4F60811E
:103CA00071818281938120E030E04AEF54E40E94E8
:103CB0001F02DC01CB01F80180839183A283B383CF
:103CC000FE01FF96608171818281938120E030E066
:103CD00040E85FE30E94550488232CF481E090E0E3
:103CE0009EAF8DAF46C0FE01FF96608171818281DB
:103CF000938120E03FEF4FE757E40E94F503181649
:103D000064F5FE01ED5BFF4F6081718182819381DB
:103D100020E030E040E251E40E941F02DC01CB01D0
:103D2000BC01CD010E944900DC01CB019EAF8DAFEB
:103D30000FC088EC90E09CAF8BAF8BAD9CAD019732
:103D4000F1F79CAF8BAF8DAD9EAD01979EAF8DAF60
:103D50008DAD9EAD009769F716C0FE01FF9660819C
:103D60007181828193810E944900DC01CB019EAF69
:103D70008DAF8DAD9EAD9AAF89AF89AD9AAD0197EC
:103D8000F1F79AAF89AF0E943D191092C4011092C9
:103D9000C5011092C6011092C70187E49BE10E9401
:103DA000860C0E94C70B89E061E00E94521081E4FA
:103DB0000E9462182BEC31E083E0B9010E944413A9
:103DC0008091CB018432B0F70E947B182BEC31E05C
:103DD00083E0B9010E9444138091CB018830B0F791
:103DE00082E30E94481880E090E0A0EAB1E48DAB45
:103DF0009EABAFABB8AF6DA97EA98FA998AD20E0FF
:103E000030E04AEF54E40E941F02DC01CB0189AB91
:103E10009AABABABBCAB69A97AA98BA99CA920E0F2
:103E200030E040E85FE30E94550488232CF481E0F1
:103E300090E098AB8FA73FC069A97AA98BA99CA9EC
:103E400020E03FEF4FE757E40E94F50318164CF5CA
:103E50006DA97EA98FA998AD20E030E040E251E441
:103E60000E941F02DC01CB01BC01CD010E94490070
:103E7000DC01CB0198AB8FA70FC088EC90E09EA728
:103E80008DA78DA59EA50197F1F79EA78DA78FA55C
:103E900098A9019798AB8FA78FA598A9009769F764
:103EA00014C069A97AA98BA99CA90E944900DC01C8
:103EB000CB0198AB8FA78FA598A99CA78BA78BA5A3
:103EC0009CA50197F1F79CA78BA70E9478190E94E7
:103ED000271A0E947A1B82E08093C30189E060E088
:103EE0000E9452100E94DC0B88E061E00E94521098
:103EF00080E090E0A8E4B3E48FA398A7A9A7BAA7AD
:103F00006FA178A589A59AA520E030E04AEF54E496
:103F10000E941F02DC01CB018BA39CA3ADA3BEA317
:103F20006BA17CA18DA19EA120E030E040E85FE381
:103F30000E94550488232CF481E090E09AA389A381
:103F40003FC06BA17CA18DA19EA120E03FEF4FE778
:103F500057E40E94F50318164CF56FA178A589A5C2
:103F60009AA520E030E040E251E40E941F02DC010B
:103F7000CB01BC01CD010E944900DC01CB019AA319
:103F800089A30FC088EC90E098A38F8F8F8D98A1A4
:103F90000197F1F798A38F8F89A19AA101979AA30E
:103FA00089A389A19AA1009769F714C06BA17CA18C
:103FB0008DA19EA10E944900DC01CB019AA389A397
:103FC00089A19AA19E8F8D8F8D8D9E8D0197F1F77E
:103FD0009E8F8D8F88E060E00E94521080E090E01C
:103FE000A8ECB2E4898F9A8FAB8FBC8F698D7A8DE4
:103FF0008B8D9C8D20E030E04AEF54E40E941F023C
:10400000DC01CB018D8B9E8BAF8BB88F6D897E8948
:104010008F89988D20E030E040E85FE30E945504EE
:1040200088232CF481E090E09C8B8B8B3FC06D89C2
:104030007E898F89988D20E03FEF4FE757E40E94FB
:10404000F50318164CF5698D7A8D8B8D9C8D20E0CB
:1040500030E040E251E40E941F02DC01CB01BC01D0
:10406000CD010E944900DC01CB019C8B8B8B0FC0E2
:1040700088EC90E09A8B898B89899A890197F1F76E
:104080009A8B898B8B899C8901979C8B8B8B8B89D5
:104090009C89009769F714C06D897E898F89988DF6
:1040A0000E944900DC01CB019C8B8B8B8B899C8906
:1040B000988B8F878F8598890197F1F7988B8F87D9
:1040C00088E061E00E94521080E090E0A8E4B3E450
:1040D0008B879C87AD87BE876B857C858D859E850C
:1040E00020E030E04AEF54E40E941F02DC01CB01E3
:1040F0008F839887A987BA876F81788589859A8504
:1041000020E030E040E85FE30E94550488232CF46F
:1041100081E090E09E838D833FC06F8178858985A3
:104120009A8520E03FEF4FE757E40E94F503181609
:104130004CF56B857C858D859E8520E030E040E2E6
:1041400051E40E941F02DC01CB01BC01CD010E94A1
:104150004900DC01CB019E838D830FC088EC90E089
:104160009C838B838B819C810197F1F79C838B834C
:104170008D819E8101979E838D838D819E81009785
:1041800069F714C06F81788589859A850E944900F6
:10419000DC01CB019E838D838D819E819A838983EF
:1041A00089819A810197F1F79A83898388E060E099
:1041B0000E945210CC5ADF4F0FB6F894DEBF0FBEEC
:1041C000CDBFCF91DF911F910F910895DF93CF93D2
:1041D000CDB7DEB70E94361A0E94431AFDCFAA1B44
:1041E000BB1B51E107C0AA1FBB1FA617B70710F0E2
:1041F000A61BB70B881F991F5A95A9F78095909514
:10420000BC01CD01089597FB092E07260AD077FD42
:1042100004D0E5DF06D000201AF4709561957F4F39
:104220000895F6F7909581959F4F0895A1E21A2E73
:10423000AA1BBB1BFD010DC0AA1FBB1FEE1FFF1F4A
:10424000A217B307E407F50720F0A21BB30BE40B9A
:10425000F50B661F771F881F991F1A9469F76095E1
:104260007095809590959B01AC01BD01CF0108959B
:104270002F923F924F925F926F927F928F929F9276
:10428000AF92BF92CF92DF92EF92FF920F931F9364
:10429000CF93DF93CDB7DEB7CA1BDB0B0FB6F89415
:1042A000DEBF0FBECDBF09942A88398848885F8455
:1042B0006E847D848C849B84AA84B984C884DF80C6
:1042C000EE80FD800C811B81AA81B981CE0FD11DAA
:1042D0000FB6F894DEBF0FBECDBFED010895F89480
:0242E000FFCF0E
:1042E20000000000000000000001020203030303BB
:1042F2000404040404040404050505050505050574
:104302000505050505050505060606060606060653
:10431200060606060606060606060606060606063B
:104322000606060606060606070707070707070723
:10433200070707070707070707070707070707070B
:1043420007070707070707070707070707070707FB
:1043520007070707070707070707070707070707EB
:1043620007070707070707070808080808080808D3
:1043720008080808080808080808080808080808BB
:1043820008080808080808080808080808080808AB
:10439200080808080808080808080808080808089B
:1043A200080808080808080808080808080808088B
:1043B200080808080808080808080808080808087B
:1043C200080808080808080808080808080808086B
:1043D200080808080808080808080808080808085B
:1043E2000808080808080808010002010002000382
:1043F200000400050006000700080009000A010B7E
:10440200000C000D000E000F00100011001200132E
:10441200001400150016001700180019001A001BDE
:0A442200001C001D001E011F000019
:00000001FF
